04/10/2006  15:20:27:   <== 8=FIX.4.2|9=66|35=0|49=BCExchange|56=CoyTrade|34=33911|43=N|52=20060410-20:20:27|10=136|        JUNK OUT HERE
04/10/2006  15:20:39:   <== 8=FIX.4.2|9=199|35=8|49=BCExchange|56=CoyTrade|34=33912|57=u716343|52=20060410-20:20:39|17=890957098|20=0|39=3|37=JSD09182|11=103-107515|54=1|55=LU|38=50000|32=0|31=0.00000000|14=0|6=0.00000000|60=20060410-20:20:39|10=195|
04/10/2006  15:20:43:   <== 8=FIX.4.2|9=199|35=8|49=BCExchange|56=CoyTrade|34=33913|57=u716343|52=20060410-20:20:43|17=890957103|20=0|39=3|37=JSD09184|11=103-147517|54=5|55=LU|38=50000|32=0|31=0.00000000|14=0|6=0.00000000|60=20060410-20:20:43|10=185|
04/10/2006  15:21:00:   <== 8=FIX.4.2|9=197|35=8|49=BCExchange|56=CoyTrade|34=33914|57=u716343|52=20060410-20:21:00|17=890957109|20=0|39=3|37=JSD02317|11=1157-599911|54=1|55=T|38=800|32=0|31=0.00000000|14=0|6=0.00000000|60=20060410-20:21:00|10=062|
04/10/2006  15:21:01:   <== 8=FIX.4.2|9=199|35=8|49=BCExchange|56=CoyTrade|34=33915|57=u716343|52=20060410-20:21:01|17=890957111|20=0|39=3|37=JSD06187|11=1356-1112761|54=1|55=T|38=1600|32=0|31=0.00000000|14=0|6=0.00000000|60=20060410-20:21:01|10=150|JUNK
04/10/2006  15:21:02:   <== 8=FIX.4.2|9=198|35=8|49=BCExchange|56=CoyTrade|34=33916|57=u716343|52=20060410-20:21:02|17=890957115|20=0|39=3|37=JSD02314|11=1157-539908|54=2|55=T|38=3100|32=0|31=0.00000000|14=0|6=0.00000000|60=20060410-20:21:02|10=108|

@@EXPECTED_RESULTS@@
Direction=Incoming
ExpectedMessageCount=6
ExpectedBeginString=FIX.4.2
ExpectedSenderCompId=BCExchange
ExpectedTargetCompId=CoyTrade
IsValid=true