8=FIX.4.2|9=66|35=A|34=1|49=CoyTrade|52=20060516-22:35:27.010|56=BCE|98=0|108=30|10=223|
8=FIX.4.2|9=66|35=A|34=1|49=BCE|52=20060516-22:35:27.722|56=CoyTrade|98=0|108=30|10=233|

8=FIX.
4.2|9=54|35=5|34=3|49=CoyTrade|52=
20060516-22:35:48.919|56=BCE|1
0=206|


8=FIX.4.2|9=54|35=5|34=3|49=BCE|52=20060516-22:35:49.009|56=CoyTrade|10=197|

@@EXPECTED_RESULTS@@
Direction=Both
ExpectedMessageCount=4
ExpectedBeginString=FIX.4.2
ExpectedSenderCompId=CoyTrade
ExpectedTargetCompId=BCE
IsValid=true