8=FIX.4.2|9=66|35=A|34=1|49=CoyTrade|52=20060516-22:35:27.010|56=BCE|98=0|108=30|10=223|
8=FIX.4.2|9=66|35=A|34=1|49=BCE|52=20060516-22:35:27.722|56=CoyTrade|98=0|108=30|10=233|
8=FIX.4.2|9=117|35=D|34=2|49=CoyTrade|52=20060516-22:35:40.763|56=BCE|11=1|21=3|38=100|40=1|44=100|54=1|55=AAPL|60=20060516-22:35:40|10=145|
8=FIX.4.2|9=121|35=8|34=2|49=BCE|52=20060516-22:35:41.504|56=CoyTrade|6=45|11=1|14=100|17=1500|20=0|37=500|39=2|54=1|55=AAPL|150=0|151=0|10=200|
8=FIX.4.2|9=54|35=5|34=3|49=CoyTrade|52=20060516-22:35:48.919|56=BCE|10=206|
8=FIX.4.2|9=54|35=5|34=3|49=BCE|52=20060516-22:35:49.009|56=CoyTrade|10=197|

@@EXPECTED_RESULTS@@
Direction=Both
ExpectedMessageCount=6
ExpectedBeginString=FIX.4.2
ExpectedSenderCompId=CoyTrade
ExpectedTargetCompId=BCE